{
  "_format": "hh-sol-artifact-1",
  "contractName": "CatVote",
  "sourceName": "contracts/catvote.sol",
  "abi": [
    {
      "inputs": [],
      "stateMutability": "nonpayable",
      "type": "constructor"
    },
    {
      "anonymous": false,
      "inputs": [
        {
          "indexed": false,
          "internalType": "bool",
          "name": "vote",
          "type": "bool"
        },
        {
          "indexed": false,
          "internalType": "address",
          "name": "addr",
          "type": "address"
        }
      ],
      "name": "voteCasted",
      "type": "event"
    },
    {
      "inputs": [
        {
          "internalType": "address",
          "name": "",
          "type": "address"
        }
      ],
      "name": "isVoted",
      "outputs": [
        {
          "internalType": "bool",
          "name": "",
          "type": "bool"
        }
      ],
      "stateMutability": "view",
      "type": "function"
    },
    {
      "inputs": [
        {
          "internalType": "bool",
          "name": "_vote",
          "type": "bool"
        }
      ],
      "name": "recordVote",
      "outputs": [],
      "stateMutability": "nonpayable",
      "type": "function"
    },
    {
      "inputs": [],
      "name": "voteCount",
      "outputs": [
        {
          "internalType": "uint256",
          "name": "",
          "type": "uint256"
        }
      ],
      "stateMutability": "view",
      "type": "function"
    },
    {
      "inputs": [
        {
          "internalType": "address",
          "name": "",
          "type": "address"
        }
      ],
      "name": "votes",
      "outputs": [
        {
          "internalType": "bool",
          "name": "",
          "type": "bool"
        }
      ],
      "stateMutability": "view",
      "type": "function"
    }
  ],
  "bytecode": "0x6080604052600060025534801561001557600080fd5b5061056f806100256000396000f3fe608060405234801561001057600080fd5b506004361061004c5760003560e01c8063c638407114610051578063cbff75cb1461006f578063d64ee2381461009f578063d8bff5a5146100bb575b600080fd5b6100596100eb565b60405161006691906103f6565b60405180910390f35b610089600480360381019061008491906102f0565b6100f1565b6040516100969190610392565b60405180910390f35b6100b960048036038101906100b49190610319565b610111565b005b6100d560048036038101906100d091906102f0565b6102a6565b6040516100e29190610392565b60405180910390f35b60025481565b60016020528060005260406000206000915054906101000a900460ff1681565b60011515600160003373ffffffffffffffffffffffffffffffffffffffff1673ffffffffffffffffffffffffffffffffffffffff16815260200190815260200160002060009054906101000a900460ff16151514156101a5576040517f08c379a000000000000000000000000000000000000000000000000000000000815260040161019c906103d6565b60405180910390fd5b60018060003373ffffffffffffffffffffffffffffffffffffffff1673ffffffffffffffffffffffffffffffffffffffff16815260200190815260200160002060006101000a81548160ff0219169083151502179055506002600081548092919061020f9061046a565b9190505550806000803373ffffffffffffffffffffffffffffffffffffffff1673ffffffffffffffffffffffffffffffffffffffff16815260200190815260200160002060006101000a81548160ff0219169083151502179055507fcc9cf538fd9b1cb139feee1e198d58fffa955a9e30ebd787c5caab5b2aa683b1813360405161029b9291906103ad565b60405180910390a150565b60006020528060005260406000206000915054906101000a900460ff1681565b6000813590506102d58161050b565b92915050565b6000813590506102ea81610522565b92915050565b60006020828403121561030257600080fd5b6000610310848285016102c6565b91505092915050565b60006020828403121561032b57600080fd5b6000610339848285016102db565b91505092915050565b61034b81610422565b82525050565b61035a81610434565b82525050565b600061036d601283610411565b9150610378826104e2565b602082019050919050565b61038c81610460565b82525050565b60006020820190506103a76000830184610351565b92915050565b60006040820190506103c26000830185610351565b6103cf6020830184610342565b9392505050565b600060208201905081810360008301526103ef81610360565b9050919050565b600060208201905061040b6000830184610383565b92915050565b600082825260208201905092915050565b600061042d82610440565b9050919050565b60008115159050919050565b600073ffffffffffffffffffffffffffffffffffffffff82169050919050565b6000819050919050565b600061047582610460565b91507fffffffffffffffffffffffffffffffffffffffffffffffffffffffffffffffff8214156104a8576104a76104b3565b5b600182019050919050565b7f4e487b7100000000000000000000000000000000000000000000000000000000600052601160045260246000fd5b7f596f7520616c726561647920766f746564210000000000000000000000000000600082015250565b61051481610422565b811461051f57600080fd5b50565b61052b81610434565b811461053657600080fd5b5056fea2646970667358221220f8393df7955f57a10be998478dbace117bae561038ef5643d7a4bbc5bbdb107b64736f6c63430008040033",
  "linkReferences": {},
  "deployedLinkReferences": {}
}